01REMESSA01COBRANCA       1234512345678000000EMPRESA TESTE LTDA            237BRADESCO       190126               000005                                                                                                                                                                                                                                                                                  000001
